:100CD600496E707574207365637265742E00496E73
:100CE6007075743A004F6E6C7920496E7265642097
:100CF6006F70656E2100202020202020004368614F
:100D06006E6765207365637265742E004E65772085
:080D16007365637265743A0015
:100C3D00024D0000014B00014F0001510001520017
:100C4D00014C00015300014A000150000248000010
:100C8B00E4F5541211041210801211817F057E00BD
:100C9B001210A8755401C3E55494067480948050C7
:100CAB0017AF54120DD174112554F8A6077F057E8A
:100CBB00001210A8055480DE1210BCC2A6C2A77F7A
:0B0CCB0080120D1EAF4B12044080F998
:10044000755516EF14700302055714700302070A5E
:10045000240260030207347F011211147BFF7A0C1F
:1004600079D6E4FDFF120E58300267120B42C20229
:1004700030015FAF457E00EF64457008750A017575
:100480004B01804CEF640C4E70087551017552FFA2
:10049000803EEF64184E7007755101F5528031EFC0
:1004A000645E4E7006F551F5528025EF64084E707B
:1004B00008755301754A018017EF641C4E7007756B
:1004C0005301F54A800AEF645A4E7004F553F54A19
:1004D000C201AF517E00EF6401700585521F800696
:1004E000EF4E7002F51FAF1F120E2DD3E5179400CB
:1004F00074809480401E7BFF7A0C79E47D01E4FFD8
:10050000120E58E5172430FBE4FD7F0F1210251260
:1005100009AD80377BFF7A0C79EBE4FDFF120E58B2
:100520007BFF7A0C79FC7D01E4FF120E58E5114542
:10053000107002C2A320A3130511E511700205106B
:10054000D39464E51094004002D2A3E50A640160EC
:10055000030204680210807555161208208F55306A
:100560000271120B42C202300169AF457E00EF6496
:100570000C70087551017552FF8056EF64184E706B
:1005800007755101F5528049EF645E4E7006F551D2
:10059000F552803DEF64084E7008755301754A01AD
:1005A000802FEF641C4E7007755301F54A8022EFCF
:1005B000645A4E7006F553F54A8016EF64474E7044
:1005C00010F54B751703F50AC2ABC28EF551F51F36
:1005D00022C201E54F6401600302065CF54F120A76
:1005E000E18E4D8F4E1208EF12103C7B2A7D017F69
:1005F0000D1210257F81120EEEAB1EE4FD7F081256
:100600000FD27B2DE4FD7F0A121025AB1CE4FD7F89
:100610000B120FD27B2DE4FD7F0D121025AB1BE4D6
:10062000FD7F0E120FD2AB1A7D01E4FF120FD27BB9
:100630003A7D017F02121025AB197D017F03120F55
:10064000D27B3A7D017F05121025AB187D017F0614
:10065000120FD27B6F7D017F0A121025AF557E00ED
:10066000EF70087551017552FF803EEF64014E70C6
:1006700007755101F5528031EF64024E7006F55155
:10068000F5528025EF64044E7008755301754A01D8
:100690008017EF64054E7007755301F54A800AEF25
:1006A00064064E7004F553F54AAF517E00EF6401C5
:0B06B000700585521F8027EF4E70235D
:1006BB00FF120D9AAF1A1210F38F567E00D3EF94E0
:1006CB0014748094804009EF9417748094804003D5
:0306DB00E4F51F24
:1006DE00AF1F120E2DE55564127008754B027F0187
:1006EE00021114E55564136003020557F54B751797
:1006FE0003F50AF551F553F51FC2A7227F0112111A
:01070E0014D6
:10070F00E4F5567BFF7A0D7903FDFF120E587BFF40
:10071F007A0D79127D01E4FF120E581207358F56AC
:05072F00EF640170DB26
:0107340022A2
:10110400D2AFD2AB438910758D3C758BB0D28E2291
:03001B00020F577A
:020F5700C0E0F8
:100F5900758D3C758BB00549E549700205486414E7
:0B0F690045487007F548F549754F0139
:030F7400D0E03298
:100F9600D3EF9400EE940040147D727C00ED1D703A
:0D0FA600011CED4C70F7EF1F70E61E80E39C
:010FB300221B
:1008200075591675B00FAFB0EF640F605F7F057E2E
:1008300000120F96AFB0EF640F6051AFB0EF24F924
:10084000601A24FC601124FE6008147012E4F5594B
:10085000800D7559048008755908800375590C7509
:10086000B0F0AFB0EF2490601624C0600C24E060BC
:100870000424F080100559800C0559055980067430
:10088000032559F559AFB0EF64F070F975B0FFAFBB
:10089000B0EFF460377F057E00120F96AFB0EFF433
:1008A000602AAFB0EF2409601A24FC601124FE60B6
:1008B00008147012755910800D75591180087559FA
:1008C000128003755913AFB0EFF470FAAF59EF64AB
:1008D000166019D3EF940974809480400FEF941040
:0E08E00074809480500674272559F559AF593D
:0108EE0022E7
:1010BC00438902E4F58CF58AD2AFD2A9D28CD288BE
:0310CC00D2A82285
:03000B00020006EA
:0300060005473279
:03000300020BEC01
:0D0BEC00C0E0C0D075D000C000C006C0073A
:100BF900300031AF47C3EF943574809480500DC3F2
:100C0900EF9420748094804003752100742225217B
:100C1900F8A6477547000521E5216421700BD2022A
:090C2900F5218005754700D20099
:0B0C3200D007D006D000D0D0D0E032B8
:100B4200755701E4FFEFC39404748094805045E428
:100B5200FEEEFD7C00C394087480948050337422AE
:100B62002557F8E6D3940574809480400874432F87
:100B7200F8E64480F6C3ED9407EC64809480500C50
:100B820074432FF8C000E6C313D000F605570E8059
:060B9200C00F80B1D2018A
:010B9800223A
:1010CF007580FFC2B5D2B6D2B4AF80C2B4EF20E7FD
:0110DF00F61A
:0110E00022ED
:10111400AE071210CFC2B5C2B68E80D2B4C2B4220A
:10112400AE071210CFD2B5C2B68E80D2B4C2B422EA
:1010E100ED7004AC078004EF2440FCEC4480FF0267
:0210F1001114D8
:10102500AE07AC03ED6003430640430680AF0612EE
:071035001114AF04021124A5
:100FD2008F57AA03A9050557EAC4540F2430FB1200
:0D0FE2001025EA540F2430FBAF57021025F4
:100E58008B598A5A895B1210E1AB59AA5AA95B12BD
:100E680002DB6013055BE55B7002055A14F9120298
:080E7800DBFF12112480E222CD
:101080007F381211147F0C1211147F061211147F75
:041090000102111434
:0F1134002020202020004368616E6765642E0034
:100C5D0005120102030405050B0000000000011739
:0A0C6D0003010A000108000109005C
:1009AD007557161208208F57EF64166034C3E5088B
:1009BD009405748094805029EF64106024EF6411C5
:1009CD00601FEF6412601AEF64136015740B250835
:1009DD00F8A657E5082406FF7B2A7D011210250590
:1009ED0008E5576410702BF508120E80EF4E701647
:1009FD007BFF7A1179347D017F06120E581517E4AD
:100A0D00F510F511800CE4F508754B01751703759C
:080A1D000A01E5576411702F76
:100A2500F558F5087F80121114E4F558C3E558947C
:100A3500057480948050187BFF7A1179347D017F8D
:0F0A450006120E58740B2558F8E4F6055880DD9C
:010A5400227F
:100E8000E4FFEFC3940574809480501574122FF81A
:100E9000E6FE740B2FF8E66E6004E4FEFF220F807E
:050EA000E17E007F016E
:010EA500222A
:100735007557161208208F57EF64166037C3E50901
:10074500940574809480502CEF64106027EF641139
:100755006022EF6412601DEF64136018740B2509A5
:10076500F8A657E509240BFFE5572430FB7D011258
:1007750010250509E55764107076E5096405707064
:10078500F50978127C00FDFB7A00790B120423E44D
:10079500F558C3E558940574809480500B740B2567
:1007A50058F8E4F6055880EA7F01121114755801CE
:1007B500C3E558940674809480501774112558F831
:1007C500E6FDAF58120F127F057E001210A80558DE
:1007D50080DE7BFF7A11793AE4FDFF120E587FB86F
:1007E5007E0B1210A87F01121114754B017F012297
:0607F500E55764117022BB
:1007FB00F558F5097F01121114E4F558C3E5589427
:10080B000574809480500B740B2558F8E4F605584A
:02081B0080EA71
:02081D007F005A
:01081F0022B6
:070C7700055D000000000014
:100F7700C2A27F647E00EF1F70011EEF4E70F7D292
:0E0F8700A27E007F04EF1F70011EEF4E70F778
:010F95002239
:10106A0020A2FDA2A2B340FB7F047E00EF1F700105
:05107A001EEF4E70F7AF
:01107F00224E
:100EA600C2A20FBF0000D2A20FBF00000FBF0000FA
:100EB600A2A292037E007F08EF1F70011EEF4E7004
:030EC600F7A2038D
:010EC9002206
:100ECA00E4FDFBFA120EA6E433FFC4333333548035
:100EDA00FEEDC3134EFD0BBB00010AEB64084A701A
:030EEA00E3AF056E
:010EED0022E2
:020B9900A907AA
:100B9B00E4FFEFC39408748094805044E9139203EC
:100BAB00E9C313F930031BC2A20BBB00000BBB0044
:100BBB0000D2A27A007B08EB1B70011AEB4A70F78C
:100BCB00801BC2A27A007B08EB1B70011AEB4A70E8
:100BDB00F7D2A20BBB00010A0BBB00010A0F80B2BC
:010BEB0022E7
:10103C00120F7712106A7F017E001210A87FCC125B
:07104C000B997F44020B9990
:10105300120F7712106A7F017E001210A87FCC1244
:071063000B997FBE020B99FF
:100AE100121053120ECAA907120ECAEFFEE9FF8EA9
:100AF100578F58AC57AD58EC120221E4FBFA7980BC
:100B0100783D1201168F5C8E5B8D5A8C59E4FFFE85
:100B11007DC87C42AB5CAA5BA95AA859120116D3C5
:100B2100E5589400E55764809480E4FBFAF94004A9
:100B3100783F800278BF12002512025A8E578F58D3
:010B41002291
:0408EF008E578F5839
:1008F30012115CAB07AA067C277D101202F48F5DF0
:100903007C277D10AF03AE021202F47E037FE8CF93
:10091300CDCFCECCCE1202F48F5E7C037DE8AF0345
:10092300AE021202F47E007F64CFCDCFCECCCE12C6
:1009330002F48F5F7C007D64AF03AE021202F47E8B
:10094300007F0ACFCDCFCECCCE1202F48F60AE02A1
:10095300AF037C007D0A1202F48D617F80121114B3
:10096300C3E5576480948050047F2D80027F2B124F
:100973001124E55D60062430FF121124755901E549
:10098300596405601B745D2559F8E62430FF121184
:1009930024E559640270057F2E121124055980DF66
:0A09A3007FDF1211247F43021124AC
:090C7E000718323A150F020110AB
:060F3500C292C290D292AC
:100F3B00E4FEEEC3940874809480500FC290EF13BC
:0B0F4B009291D290EFC313FF0E80E7DD
:010F56002278
:100FB400E4FEEEC39408748094805011C290EFC391
:0D0FC40013FF309103430780D2900E80E5AB
:010FD10022FD
:08117200120F35AF05020F3B1F
:06118800120F35020FB446
:07117A00E4FD7F8E021172FB
:0C1150007D807F8E121172C292C290222C
:020D1E00AC0720
:100D200012117AE4FBEBC3940774809480502E7404
:100D3000182BF8E6FF75F00A84FAEF75F00A84A61E
:100D4000F0EAC454F0FF74182BF8EF26F6AF0474E1
:100D5000182BF8E6FD1211720C0C0B80C802115012
:020EEE00AC074F
:100EF00012117AE4FDEDC39407748094805010AF12
:100F00000412118874182DF8A6070C0C0D80E60247
:020F100011507E
:10109400EF75F00A84FEEF75F00A84AFF0EEC454E5
:0310A400F02FFF2B
:0110A7002226
:1010F300EFC4540FFEEF540FFFEE75F00AA42FFF59
:0111030022C9
:020009000022D3
:07118100D2A000D2A1002260
:0D000E00D2A100D2A0120009C2A002000978
:0D114300C2A000D2A1120009D2A002000932
:10100C00C2A100300304C2A08002D2A000D2A1125F
:09101C000009C2A100D2A00022CB
:080FEF0012000E7FA0120E019A
:100FF700D2A112000930A008C2A100121143C322D6
:05100700C2A100D3228C
:100E0100E4FEEEC39408748094805019C2A100EFEF
:100E110030E705D2A0008003C2A000D2A100EF25D7
:0B0E2100E0FF0E80DDC2A100D2A000A7
:010E2C0022A3
:100D6000C2A100D2A000E4FEEEFD7C00C394087492
:100D70008094805024D2A10030A005430701800355
:100D80005307FE00C2A100C3ED9407EC6480948079
:090D90005004EF25E0FF0E80CFB6
:010D99002237
:100F1200AC07120FEF400122AF04120E01120FF7BD
:100F2200400122AF05120E01120FF74001221211E9
:030F320043D32284
:020DD100AD076C
:100DD300120FEF40037F0022AF05120E01C2031270
:100DE300100C12000E7FA1120E01120FF740037FA9
:0D0DF3000022120D60C20312100C121143F9
:010E000022CF
:100E2D008F5712000E7F90120E01120FF740012204
:100E3D007F40120E01120FF7400122AF57120E0123
:0B0E4D00120FF7400122121143D322C4
:100D9A008F5712000E7F90120E01120FF740012298
:100DAA00AF57120E01C20312100C12000E7F9112DD
:100DBA000E01120FF7400122120D608F1FC203129B
:070DCA00100C121143D322AB
:030C87000162C83F
:09116800007F027EC7DEFEDFFC01
:01117100225B
:1010A800AD07AC06ED1DAE0470011C4E60051211B3
:0410B8006880F12239
:10001E000202C6E86480F8E933E83360110460F048
:10002E00ED33EC337009E8FCE9FDEAFEEBFF220448
:10003E0060DED3EB9FEA9EE99DE8C2E78CF0C2F743
:10004E0095F0400CE8CCF8E9CDF9EACEFAEBCFFB0F
:10005E0012029185D0F05804700320D5B3E80470D5
:10006E00075002B2D50202D092D5EC0460F7E4CC70
:10007E00C0E0C398F8603B94186008400DD0E0FBD8
:10008E000202A8E4FBFAC9FC8028E830E406E4C9C1
:10009E00FBE4CAFCE830E305E4C9CACBFCE854072C
:1000AE006010F8C3E913F9EA13FAEB13FBEC13FC37
:1000BE00D8F130F52FC3E49CFCEF9BFFEE9AFEEDDA
:1000CE0099FDD0E0FBEF4E4D4C701222DB03020285
:1000DE00CDEC2CFCEF33FFEE33FEED33FDED30E7D0
:1000EE00EB0202A8EF2BFFEE3AFEED39FDD0E0FB5E
:1000FE0050130BBB00030202D0ED13FDEE13FEEF07
:08010E0013FFEC13FC0202A830
:10011600EC4D6011E8497017ED33EC3304600DE4E3
:10012600FCFFFEFD22E933E8330470F80202C61232
:10013600029158046009E4CC248150062850090233
:1001460002D02840030202CDC0E0EB4A7044B980D9
:1001560006D0E0FB0202BCEF4E701CBD8008EBFF30
:10016600EAFEE9FD80EBE98DF0A4FEE5F00201FF71
:10017600E9CDF9EAFEEBFFEF89F0A4FCE5F0CE89C4
:10018600F0A42EFFE435F0CD89F0A42DFEE435F081
:100196008067EF4E7005BD80D780C3EF8BF0A4ACAF
:1001A600F0EE8BF0A42CFCE435F0F8EF8AF0A42CEA
:1001B600E5F038FCE433CB8DF0A42CFCE5F03BF8FD
:1001C600EE8AF0A42CFCE5F038F8E433CF89F0A4ED
:1001D6002CFCE5F038CF3400CE89F0A42FFFE5F0F3
:1001E6003EFEE433C98DF0A42EFEE5F039CD8AF04B
:1001F600A42FFFE5F03EFEE43DFD33D0E0FB5007C3
:100206000BBB000F0202D0EC2CFCEF33FFEE33FEEB
:06021600ED33FD0202A819
:10021C0075F020800E75F010800575F0087D007E5D
:10022C00007F003392D530D503120349EC334010D4
:10023C00EF33FFEE33FEED33FDEC33FCD5F0ED2266
:0E024C00E5F0247EA2D513CC92E7CDCEFF22A2
:10025A00EDD2E7CD33EC3392D524814006E4FFFE9C
:10026A00FDFC22FCE4CFCECDCC24E0501174FF80FB
:10027A00EDC3CC13CCCD13CDCE13CECF13CF047098
:07028A00F030D5DE0203494C
:10029100E9D2E7C933E833F892D5EDD2E7CD33ECB3
:0702A10033FC5002B2D5222C
:1002A800EC30E7100FBF000C0EBE00080DBD0004B7
:1002B8000BEB6014A2D5EB13FCED92E7FD2274FF63
:1002C800FCFDFEFF22E480F8A2D574FF13FC7D80BC
:0302D800E480EFD0
:03000000020A559C
:0C0A5500787FE4F6D8FD758163020A9CEE
:1002DB00BB010689828A83E0225002E722BBFE0221
:0902EB00E32289828A83E4932254
:1002F400BC000BBE0029EF8DF084FFADF022E4CCEE
:10030400F875F008EF2FFFEE33FEEC33FCEE9DECB6
:10031400984005FCEE9DFE0FD5F0E9E4CEFD22EDFC
:10032400F8F5F0EE8420D21CFEADF075F008EF2F46
:10033400FFED33FD4007985006D5F0F222C398FD37
:050344000FD5F0EA22D4
:0E034900C3E49FFFE49EFEE49DFDE49CFC22C5
:0C115C00EE30E707C3E49FFFE49EFE2294
:10035700E709F60870FA8046E709F20870FA803E66
:1003670088828C83E709F0A370FA807EE309F60898
:1003770070FA8076E309F20870FA806E88828C83BF
:10038700E309F0A370FA806289828A83E0A3F60802
:1003970070FA805689828A83E0A3F20870FA804A4D
:1003A70080D280FA80C680D4806580F28031801048
:1003B70080A680EA809A80A880DA80E280CA8031AD
:1003C70089828A83ECFAE493A3C8C582C8CCC58323
:1003D700CCF0A3C8C582C8CCC583CC70E9800D8991
:1003E700828A83E493A3F60870F9ECFAA9F0EDFB8F
:1003F7002289828A83ECFAE0A3C8C582C8CCC58368
:10040700CCF0A3C8C582C8CCC583CC70EA80DD898F
:10041700828A83E493A3F20870F980CE88F0ED24F2
:1004270002B4040050C4F582EB2402B4040050BAAD
:0904370023234582239003A773DF
:100A6100020C8BE493A3F8E493A34003F68001F214
:100A710008DFF48029E493A3F85407240CC8C33396
:100A8100C4540F4420C8834004F456800146F6DF65
:100A9100E4800B0102040810204080900C3DE47EAC
:100AA100019360BCA3FF543F30E509541FFEE4935A
:100AB100A360010ECF54C025E060A840B8E493A321
:100AC100FAE493A3F8E493A3C8C582C8CAC583CA4C
:100AD100F0A3C8C582C8CAC583CADFE9DEE780BE04
:010C8A000069
:00000001FF
