:0B02D000E4F51B12025812015E80FBD7
:0102E50022F6
:1001ED00D3EF9400EE940040147D727C00ED1D70F1
:0D01FD00011CED4C70F7EF1F70E61E80E353
:01020A0022D1
:10000300751D1675B00FAFB0EF640F605F7F057E8F
:10001300001201EDAFB0EF640F6051AFB0EF24F900
:10002300601A24FC601124FE6008147012E4F51DAC
:10003300800D751D048008751D088003751D0C75E2
:10004300B0F0AFB0EF2490601624C0600C24E060E1
:100053000424F08010051D800C051D051D80067409
:1000630003251DF51DAFB0EF64F070F975B0FFAF58
:10007300B0EFF460377F057E001201EDAFB0EFF40F
:10008300602AAFB0EF2409601A24FC601124FE60DB
:1000930008147012751D10800D751D118008751DD3
:1000A300128003751D13AFB0EFF470FAAF1DEF6448
:1000B300166019D3EF940974809480400FEF941065
:0E00C3007480948050067427251DF51DAF1D16
:0100D100220C
:10026C007580FFC2B5D2B6D2B4AF80C2B4EF20E76E
:01027C00F68B
:01027D00225E
:1002A200AE0712026CC2B5C2B68E80D2B4C2B422FC
:1002B200AE0712026CD2B5C2B68E80D2B4C2B422DC
:10027E00ED7004AC078004EF2440FCEC4480FF02D8
:02028E0002A2CA
:10024100AE07AC03ED6003430640430680AF0612E0
:0702510002A2AF040202B299
:10020B008F1EAA03A905051EEAC4540F2430FB1246
:0D021B000241EA540F2430FBAF1E020241E5
:10019F008B188A19891A12027EAB18AA19A91A127A
:1001AF0002286013051AE51A7002051914F91202D4
:0801BF0028FF1202B280E222C7
:100258007F381202A27F0C1202A27F061202A27F2E
:04026800010202A2EB
:100290000513010203040505090000000000010820
:0102A000005D
:10015E00751C161200038F1CEF64166024C3E5088D
:10016E009405748094805019E5082480FF1202A231
:10017E0074092508F8A61CE51C2430FF1202B205EE
:10018E0008E51C641070091201C7EF4E7002C2A37D
:01019E00223E
:1001C700E4FFEFC3940574809480501574132FF8DF
:1001D700E6FE74092FF8E66E6004E4FEFF220F8046
:0501E700E17E007F0134
:0101EC0022F0
:0902DB00007F027EC7DEFEDFFC9D
:0102E40022F7
:0E02C200AD07AF051DEF60051202DB80F522CF
:030000000200D229
:0C00D200787FE4F6D8FD75811E0201194C
:10022800BB010689828A83E0225002E722BBFE02D4
:09023800E32289828A83E4932207
:1000DE000202D0E493A3F8E493A34003F68001F266
:1000EE0008DFF48029E493A3F85407240CC8C33323
:1000FE00C4540F4420C8834004F456800146F6DFF2
:10010E00E4800B0102040810204080900290E47EEF
:10011E00019360BCA3FF543F30E509541FFEE493E6
:10012E00A360010ECF54C025E060A840B8E493A3AD
:10013E00FAE493A3F8E493A3C8C582C8CAC583CAD8
:10014E00F0A3C8C582C8CAC583CADFE9DEE780BE90
:0102A100005C
:00000001FF
