:100CAF00496E707574207365637265742E00496E9A
:100CBF007075743A004F6E6C7920496E72656420BE
:100CCF006F70656E21002020202020200043686176
:100CDF006E6765207365637265742E004E657720AD
:080CEF007365637265743A003D
:100C1600024D0000014B00014F000151000152003E
:100C2600014C00015300014A000150000248000037
:100C6400E4F5541210DD12105912115A7F057E005A
:100C7400121081755401C3E5549406748094805015
:100C840017AF54120DAA74112554F8A6077F057ED8
:100C940000121081055480DE121095C2A6C2A77FEF
:0B0CA40080120CF7AF4B12044080F9E7
:10044000755516EF1470030205571470030206E386
:100450002402600302070D7F011210ED7BFF7A0C6E
:1004600079AFE4FDFF120E31300267120B1BC2029E
:1004700030015FAF457E00EF64457008750A017575
:100480004B01804CEF640C4E70087551017552FFA2
:10049000803EEF64184E7007755101F5528031EFC0
:1004A000645E4E7006F551F5528025EF64084E707B
:1004B00008755301754A018017EF641C4E7007756B
:1004C0005301F54A800AEF645A4E7004F553F54A19
:1004D000C201AF517E00EF6401700585521F800696
:1004E000EF4E7002F51FAF1F120E06D3E5179400F2
:1004F00074809480401E7BFF7A0C79BD7D01E4FFFF
:10050000120E31E5172430FBE4FD7F0F120FFE12AF
:10051000098680377BFF7A0C79C4E4FDFF120E3127
:100520007BFF7A0C79D57D01E4FF120E31E5114590
:10053000107002C2A320A3130511E511700205106B
:10054000D39464E51094004002D2A3E50A640160EC
:10055000030204680210597555161207F98F5530B9
:10056000024A120B1BC202300142AF457E00EF640B
:100570000C70087551017552FF802FEF64184E7092
:1005800007755101F5528022EF645E4E7006F551F9
:10059000F5528016EF64474E7010F54B751703F552
:1005A0000AC2ABC28EF551F51F22C201E54F6401AC
:1005B0006003020635F54F120ABA8E4D8F4E1208AF
:1005C000C81210157B2A7D017F0D120FFE7F81124C
:1005D0000EC7AB1EE4FD7F08120FAB7B2DE4FD7F41
:1005E0000A120FFEAB1CE4FD7F0B120FAB7B2DE458
:1005F000FD7F0D120FFEAB1BE4FD7F0E120FABABA8
:100600001A7D01E4FF120FAB7B3A7D017F02120FCE
:10061000FEAB197D017F03120FAB7B3A7D017F0595
:10062000120FFEAB187D017F06120FAB7B6F7D01B1
:100630007F0A120FFEAF557E00EF700875510175ED
:1006400052FF803EEF64014E7007755101F55280F4
:1006500031EF64024E7006F551F5528025EF6404C7
:100660004E7008755301754A018017EF64054E708E
:1006700007755301F54A800AEF64064E7004F5537E
:10068000F54AAF517E00EF6401700585521F802747
:04069000EF4E702396
:10069400FF120D73AF1A1210CC8F567E00D3EF9455
:1006A40014748094804009EF9417748094804003FC
:0306B400E4F51F4B
:1006B700AF1F120E06E55564127008754B027F01D5
:1006C7000210EDE55564136003020557F54B7517E6
:1006D70003F50AF551F553F51FC2A7227F01121042
:0106E700ED25
:1006E800E4F5567BFF7A0C79DCFDFF120E317BFFB7
:1006F8007A0C79EB7D01E4FF120E3112070E8F564A
:05070800EF640170DB4D
:01070D0022C9
:1010DD00D2AFD2AB438910758D3C758BB0D28E22B9
:03001B00020F30A1
:020F3000C0E01F
:100F3200758D3C758BB00549E5497002054864140E
:0B0F420045487007F548F549754F0160
:030F4D00D0E032BF
:100F6F00D3EF9400EE940040147D727C00ED1D7061
:0D0F7F00011CED4C70F7EF1F70E61E80E3C3
:010F8C002242
:1007F90075591675B00FAFB0EF640F605F7F057E56
:1008090000120F6FAFB0EF640F6051AFB0EF24F972
:10081900601A24FC601124FE6008147012E4F55972
:10082900800D7559048008755908800375590C7530
:10083900B0F0AFB0EF2490601624C0600C24E060E3
:100849000424F080100559800C0559055980067457
:10085900032559F559AFB0EF64F070F975B0FFAFE2
:10086900B0EFF460377F057E00120F6FAFB0EFF481
:10087900602AAFB0EF2409601A24FC601124FE60DD
:1008890008147012755910800D7559118008755921
:10089900128003755913AFB0EFF470FAAF59EF64D2
:1008A900166019D3EF940974809480400FEF941067
:0E08B90074809480500674272559F559AF5964
:0108C700220E
:10109500438902E4F58CF58AD2AFD2A9D28CD288E5
:0310A500D2A822AC
:03000B00020006EA
:0300060005473279
:03000300020BC528
:0D0BC500C0E0C0D075D000C000C006C00761
:100BD200300031AF47C3EF943574809480500DC319
:100BE200EF942074809480400375210074222521A3
:100BF200F8A6477547000521E5216421700BD20252
:090C0200F5218005754700D200C0
:0B0C0B00D007D006D000D0D0D0E032DF
:100B1B00755701E4FFEFC39404748094805045E44F
:100B2B00FEEEFD7C00C394087480948050337422D5
:100B3B002557F8E6D3940574809480400874432FAE
:100B4B00F8E64480F6C3ED9407EC64809480500C77
:100B5B0074432FF8C000E6C313D000F605570E8080
:060B6B00C00F80B1D201B1
:010B71002261
:1010A8007580FFC2B5D2B6D2B4AF80C2B4EF20E724
:0110B800F641
:0110B9002214
:1010ED00AE071210A8C2B5C2B68E80D2B4C2B42259
:1010FD00AE071210A8D2B5C2B68E80D2B4C2B42239
:1010BA00ED7004AC078004EF2440FCEC4480FF028E
:0210CA0010ED27
:100FFE00AE07AC03ED6003430640430680AF061216
:07100E0010EDAF040210FD1C
:100FAB008F57AA03A9050557EAC4540F2430FB1227
:0D0FBB000FFEEA540F2430FBAF57020FFE6B
:100E31008B598A5A895B1210BAAB59AA5AA95B120B
:100E410002DB6013055BE55B7002055A14F91202BF
:080E5100DBFF1210FD80E2221C
:101059007F381210ED7F0C1210ED7F061210ED7F14
:04106900010210ED83
:0F110D002020202020004368616E6765642E005B
:100C360005120102030405050B0000000000011760
:0A0C460003010A0001080001090083
:100986007557161207F98F57EF64166034C3E508DA
:100996009405748094805029EF64106024EF6411EC
:1009A600601FEF6412601AEF64136015740B25085C
:1009B600F8A657E5082406FF7B2A7D01120FFE05DF
:1009C60008E5576410702BF508120E59EF4E701695
:1009D6007BFF7A11790D7D017F06120E311517E422
:1009E600F510F511800CE4F508754B0175170375C4
:0809F6000A01E5576411702F9E
:1009FE00F558F5087F801210EDE4F558C3E55894CC
:100A0E00057480948050187BFF7A11790D7D017FDB
:0F0A1E0006120E31740B2558F8E4F6055880DDEA
:010A2D0022A6
:100E5900E4FFEFC3940574809480501574122FF841
:100E6900E6FE740B2FF8E66E6004E4FEFF220F80A5
:050E7900E17E007F0195
:010E7E002251
:10070E007557161207F98F57EF64166037C3E50950
:10071E00940574809480502CEF64106027EF641160
:10072E006022EF6412601DEF64136018740B2509CC
:10073E00F8A657E509240BFFE5572430FB7D01127F
:10074E000FFE0509E55764107076E50964057070B3
:10075E00F50978127C00FDFB7A00790B120423E474
:10076E00F558C3E558940574809480500B740B258E
:10077E0058F8E4F6055880EA7F011210ED7558011D
:10078E00C3E558940674809480501774112558F858
:10079E00E6FDAF58120EEB7F057E00121081055854
:1007AE0080DE7BFF7A117913E4FDFF120E317FB8E4
:1007BE007E0B1210817F011210ED754B017F01220D
:0607CE00E55764117022E2
:1007D400F558F5097F011210EDE4F558C3E5589476
:1007E4000574809480500B740B2558F8E4F6055872
:0207F40080EA99
:0207F6007F0082
:0107F80022DE
:070C5000055D00000000003B
:100F5000C2A27F647E00EF1F70011EEF4E70F7D2B9
:0E0F6000A27E007F04EF1F70011EEF4E70F79F
:010F6E002260
:1010430020A2FDA2A2B340FB7F047E00EF1F70012C
:051053001EEF4E70F7D6
:011058002275
:100E7F00C2A20FBF0000D2A20FBF00000FBF000021
:100E8F00A2A292037E007F08EF1F70011EEF4E702B
:030E9F00F7A203B4
:010EA200222D
:100EA300E4FDFBFA120E7FE433FFC4333333548083
:100EB300FEEDC3134EFD0BBB00010AEB64084A7041
:030EC300E3AF0595
:010EC6002209
:020B7200A907D1
:100B7400E4FFEFC39408748094805044E913920313
:100B8400E9C313F930031BC2A20BBB00000BBB006B
:100B940000D2A27A007B08EB1B70011AEB4A70F7B3
:100BA400801BC2A27A007B08EB1B70011AEB4A700F
:100BB400F7D2A20BBB00010A0BBB00010A0F80B2E3
:010BC400220E
:10101500120F501210437F017E001210817FCC12F7
:071025000B727F44020B7205
:10102C00120F501210437F017E001210817FCC12E0
:07103C000B727FBE020B7274
:100ABA0012102C120EA3A907120EA3EFFEE9FF8E45
:100ACA00578F58AC57AD58EC120221E4FBFA7980E3
:100ADA00783D1201168F5C8E5B8D5A8C59E4FFFEAD
:100AEA007DC87C42AB5CAA5BA95AA859120116D3ED
:100AFA00E5589400E55764809480E4FBFAF94004D1
:100B0A00783F800278BF12002512025A8E578F58FA
:010B1A0022B8
:0408C8008E578F5860
:1008CC00121135AB07AA067C277D101202F48F5D3E
:1008DC007C277D10AF03AE021202F47E037FE8CFBB
:1008EC00CDCFCECCCE1202F48F5E7C037DE8AF036D
:1008FC00AE021202F47E007F64CFCDCFCECCCE12EE
:10090C0002F48F5F7C007D64AF03AE021202F47EB2
:10091C00007F0ACFCDCFCECCCE1202F48F60AE02C8
:10092C00AF037C007D0A1202F48D617F801210ED02
:10093C00C3E5576480948050047F2D80027F2B1276
:10094C0010FDE55D60062430FF1210FD755901E5C0
:10095C00596405601B745D2559F8E62430FF1210AC
:10096C00FDE559640270057F2E1210FD055980DFDC
:0A097C007FDF1210FD7F430210FD23
:090C57000718323A150F020110D2
:060F0E00C292C290D292D3
:100F1400E4FEEEC3940874809480500FC290EF13E3
:0B0F24009291D290EFC313FF0E80E704
:010F2F00229F
:100F8D00E4FEEEC39408748094805011C290EFC3B8
:0D0F9D0013FF309103430780D2900E80E5D2
:010FAA002224
:08114B00120F0EAF05020F1494
:06116100120F0E020F8DBB
:07115300E4FD7F8E02114B49
:0C1129007D807F8E12114BC292C290227A
:020CF700AC0748
:100CF900121153E4FBEBC3940774809480502E7453
:100D0900182BF8E6FF75F00A84FAEF75F00A84A645
:100D1900F0EAC454F0FF74182BF8EF26F6AF047408
:100D2900182BF8E6FD12114B0C0C0B80C802112987
:020EC700AC0776
:100EC900121153E4FDEDC39407748094805010AF60
:100ED9000412116174182DF8A6070C0C0D80E60296
:020EE9001129CD
:10106D00EF75F00A84FEEF75F00A84AFF0EEC4540C
:03107D00F02FFF52
:01108000224D
:1010CC00EFC4540FFEEF540FFFEE75F00AA42FFF80
:0110DC0022F1
:020009000022D3
:07115A00D2A000D2A1002287
:0D000E00D2A100D2A0120009C2A002000978
:0D111C00C2A000D2A1120009D2A002000959
:100FE500C2A100300304C2A08002D2A000D2A11287
:090FF5000009C2A100D2A00022F3
:080FC80012000E7FA0120DDAE9
:100FD000D2A112000930A008C2A10012111CC32224
:050FE000C2A100D322B4
:100DDA00E4FEEEC39408748094805019C2A100EF17
:100DEA0030E705D2A0008003C2A000D2A100EF25FF
:0B0DFA00E0FF0E80DDC2A100D2A000CF
:010E050022CA
:100D3900C2A100D2A000E4FEEEFD7C00C3940874B9
:100D49008094805024D2A10030A00543070180037C
:100D59005307FE00C2A100C3ED9407EC64809480A0
:090D69005004EF25E0FF0E80CFDD
:010D7200225E
:100EEB00AC07120FC8400122AF04120DDA120FD05B
:100EFB00400122AF05120DDA120FD0400122121160
:030F0B001CD322D2
:020DAA00AD0793
:100DAC00120FC840037F0022AF05120DDAC20312E6
:100DBC000FE512000E7FA1120DDA120FD040037F47
:0D0DCC000022120D39C203120FE512111C96
:010DD90022F7
:100E06008F5712000E7F90120DDA120FD04001227A
:100E16007F40120DDA120FD0400122AF57120DDAC1
:0B0E2600120FD040012212111CD32239
:100D73008F5712000E7F90120DDA120FD04001220E
:100D8300AF57120DDAC203120FE512000E7F911254
:100D93000DDA120FD0400122120D398F1FC2031238
:070DA3000FE512111CD32221
:030C60000162C866
:09114100007F027EC7DEFEDFFC28
:01114A002282
:10108100AD07AC06ED1DAE0470011C4E60051211DA
:041091004180F12287
:10001E000202C6E86480F8E933E83360110460F048
:10002E00ED33EC337009E8FCE9FDEAFEEBFF220448
:10003E0060DED3EB9FEA9EE99DE8C2E78CF0C2F743
:10004E0095F0400CE8CCF8E9CDF9EACEFAEBCFFB0F
:10005E0012029185D0F05804700320D5B3E80470D5
:10006E00075002B2D50202D092D5EC0460F7E4CC70
:10007E00C0E0C398F8603B94186008400DD0E0FBD8
:10008E000202A8E4FBFAC9FC8028E830E406E4C9C1
:10009E00FBE4CAFCE830E305E4C9CACBFCE854072C
:1000AE006010F8C3E913F9EA13FAEB13FBEC13FC37
:1000BE00D8F130F52FC3E49CFCEF9BFFEE9AFEEDDA
:1000CE0099FDD0E0FBEF4E4D4C701222DB03020285
:1000DE00CDEC2CFCEF33FFEE33FEED33FDED30E7D0
:1000EE00EB0202A8EF2BFFEE3AFEED39FDD0E0FB5E
:1000FE0050130BBB00030202D0ED13FDEE13FEEF07
:08010E0013FFEC13FC0202A830
:10011600EC4D6011E8497017ED33EC3304600DE4E3
:10012600FCFFFEFD22E933E8330470F80202C61232
:10013600029158046009E4CC248150062850090233
:1001460002D02840030202CDC0E0EB4A7044B980D9
:1001560006D0E0FB0202BCEF4E701CBD8008EBFF30
:10016600EAFEE9FD80EBE98DF0A4FEE5F00201FF71
:10017600E9CDF9EAFEEBFFEF89F0A4FCE5F0CE89C4
:10018600F0A42EFFE435F0CD89F0A42DFEE435F081
:100196008067EF4E7005BD80D780C3EF8BF0A4ACAF
:1001A600F0EE8BF0A42CFCE435F0F8EF8AF0A42CEA
:1001B600E5F038FCE433CB8DF0A42CFCE5F03BF8FD
:1001C600EE8AF0A42CFCE5F038F8E433CF89F0A4ED
:1001D6002CFCE5F038CF3400CE89F0A42FFFE5F0F3
:1001E6003EFEE433C98DF0A42EFEE5F039CD8AF04B
:1001F600A42FFFE5F03EFEE43DFD33D0E0FB5007C3
:100206000BBB000F0202D0EC2CFCEF33FFEE33FEEB
:06021600ED33FD0202A819
:10021C0075F020800E75F010800575F0087D007E5D
:10022C00007F003392D530D503120349EC334010D4
:10023C00EF33FFEE33FEED33FDEC33FCD5F0ED2266
:0E024C00E5F0247EA2D513CC92E7CDCEFF22A2
:10025A00EDD2E7CD33EC3392D524814006E4FFFE9C
:10026A00FDFC22FCE4CFCECDCC24E0501174FF80FB
:10027A00EDC3CC13CCCD13CDCE13CECF13CF047098
:07028A00F030D5DE0203494C
:10029100E9D2E7C933E833F892D5EDD2E7CD33ECB3
:0702A10033FC5002B2D5222C
:1002A800EC30E7100FBF000C0EBE00080DBD0004B7
:1002B8000BEB6014A2D5EB13FCED92E7FD2274FF63
:1002C800FCFDFEFF22E480F8A2D574FF13FC7D80BC
:0302D800E480EFD0
:03000000020A2EC3
:0C0A2E00787FE4F6D8FD758163020A753C
:1002DB00BB010689828A83E0225002E722BBFE0221
:0902EB00E32289828A83E4932254
:1002F400BC000BBE0029EF8DF084FFADF022E4CCEE
:10030400F875F008EF2FFFEE33FEEC33FCEE9DECB6
:10031400984005FCEE9DFE0FD5F0E9E4CEFD22EDFC
:10032400F8F5F0EE8420D21CFEADF075F008EF2F46
:10033400FFED33FD4007985006D5F0F222C398FD37
:050344000FD5F0EA22D4
:0E034900C3E49FFFE49EFEE49DFDE49CFC22C5
:0C113500EE30E707C3E49FFFE49EFE22BB
:10035700E709F60870FA8046E709F20870FA803E66
:1003670088828C83E709F0A370FA807EE309F60898
:1003770070FA8076E309F20870FA806E88828C83BF
:10038700E309F0A370FA806289828A83E0A3F60802
:1003970070FA805689828A83E0A3F20870FA804A4D
:1003A70080D280FA80C680D4806580F28031801048
:1003B70080A680EA809A80A880DA80E280CA8031AD
:1003C70089828A83ECFAE493A3C8C582C8CCC58323
:1003D700CCF0A3C8C582C8CCC583CC70E9800D8991
:1003E700828A83E493A3F60870F9ECFAA9F0EDFB8F
:1003F7002289828A83ECFAE0A3C8C582C8CCC58368
:10040700CCF0A3C8C582C8CCC583CC70EA80DD898F
:10041700828A83E493A3F20870F980CE88F0ED24F2
:1004270002B4040050C4F582EB2402B4040050BAAD
:0904370023234582239003A773DF
:100A3A00020C64E493A3F8E493A34003F68001F262
:100A4A0008DFF48029E493A3F85407240CC8C333BD
:100A5A00C4540F4420C8834004F456800146F6DF8C
:100A6A00E4800B0102040810204080900C16E47EFA
:100A7A00019360BCA3FF543F30E509541FFEE49381
:100A8A00A360010ECF54C025E060A840B8E493A348
:100A9A00FAE493A3F8E493A3C8C582C8CAC583CA73
:100AAA00F0A3C8C582C8CAC583CADFE9DEE780BE2B
:010C63000090
:00000001FF
